{
  "contractName": "VCStore",
  "abi": [
    {
      "anonymous": false,
      "inputs": [
        {
          "indexed": false,
          "internalType": "string",
          "name": "topic",
          "type": "string"
        },
        {
          "indexed": false,
          "internalType": "string",
          "name": "cid_db",
          "type": "string"
        },
        {
          "indexed": false,
          "internalType": "string",
          "name": "cid_acl",
          "type": "string"
        },
        {
          "indexed": false,
          "internalType": "string",
          "name": "transaction_id",
          "type": "string"
        }
      ],
      "name": "MappingAdded",
      "type": "event"
    },
    {
      "anonymous": false,
      "inputs": [
        {
          "indexed": true,
          "internalType": "address",
          "name": "user",
          "type": "address"
        },
        {
          "indexed": false,
          "internalType": "string",
          "name": "vc",
          "type": "string"
        }
      ],
      "name": "VCStored",
      "type": "event"
    },
    {
      "inputs": [
        {
          "internalType": "string",
          "name": "",
          "type": "string"
        },
        {
          "internalType": "uint256",
          "name": "",
          "type": "uint256"
        }
      ],
      "name": "topicMappings",
      "outputs": [
        {
          "internalType": "string",
          "name": "cid_db",
          "type": "string"
        },
        {
          "internalType": "string",
          "name": "cid_acl",
          "type": "string"
        },
        {
          "internalType": "string",
          "name": "transaction_id",
          "type": "string"
        }
      ],
      "stateMutability": "view",
      "type": "function",
      "constant": true
    },
    {
      "inputs": [
        {
          "internalType": "address",
          "name": "",
          "type": "address"
        }
      ],
      "name": "vcMap",
      "outputs": [
        {
          "internalType": "string",
          "name": "",
          "type": "string"
        }
      ],
      "stateMutability": "view",
      "type": "function",
      "constant": true
    },
    {
      "inputs": [
        {
          "internalType": "string",
          "name": "vc",
          "type": "string"
        }
      ],
      "name": "storeVC",
      "outputs": [],
      "stateMutability": "nonpayable",
      "type": "function"
    },
    {
      "inputs": [
        {
          "internalType": "string",
          "name": "topic",
          "type": "string"
        },
        {
          "internalType": "string",
          "name": "cid_db",
          "type": "string"
        },
        {
          "internalType": "string",
          "name": "cid_acl",
          "type": "string"
        },
        {
          "internalType": "string",
          "name": "txhash",
          "type": "string"
        }
      ],
      "name": "addMapping",
      "outputs": [],
      "stateMutability": "nonpayable",
      "type": "function"
    },
    {
      "inputs": [
        {
          "internalType": "string",
          "name": "topic",
          "type": "string"
        }
      ],
      "name": "getMappings",
      "outputs": [
        {
          "components": [
            {
              "internalType": "string",
              "name": "cid_db",
              "type": "string"
            },
            {
              "internalType": "string",
              "name": "cid_acl",
              "type": "string"
            },
            {
              "internalType": "string",
              "name": "transaction_id",
              "type": "string"
            }
          ],
          "internalType": "struct VCStore.Mapping[]",
          "name": "",
          "type": "tuple[]"
        }
      ],
      "stateMutability": "view",
      "type": "function",
      "constant": true
    },
    {
      "inputs": [
        {
          "internalType": "string",
          "name": "topic",
          "type": "string"
        },
        {
          "internalType": "string",
          "name": "txhash",
          "type": "string"
        }
      ],
      "name": "getMappingByTxHash",
      "outputs": [
        {
          "internalType": "string",
          "name": "cid_db",
          "type": "string"
        },
        {
          "internalType": "string",
          "name": "cid_acl",
          "type": "string"
        },
        {
          "internalType": "string",
          "name": "transaction_id",
          "type": "string"
        }
      ],
      "stateMutability": "view",
      "type": "function",
      "constant": true
    }
  ],
  "bytecode": "0x608060405234801561000f575f80fd5b506116238061001d5f395ff3fe608060405234801561000f575f80fd5b5060043610610060575f3560e01c80633428fc8c146100645780634f9d09b91461009457806375351ee2146100b05780637538e79b146100e057806390f3610614610112578063b30e2df214610144575b5f80fd5b61007e60048036038101906100799190610b5f565b610160565b60405161008b9190610c14565b60405180910390f35b6100ae60048036038101906100a99190610d60565b6101fa565b005b6100ca60048036038101906100c59190610d60565b610295565b6040516100d79190610f05565b60405180910390f35b6100fa60048036038101906100f59190610f25565b6104be565b60405161010993929190610f9b565b60405180910390f35b61012c60048036038101906101279190611018565b610821565b60405161013b93929190610f9b565b60405180910390f35b61015e60048036038101906101599190611072565b610a0b565b005b5f602052805f5260405f205f91509050805461017b90611173565b80601f01602080910402602001604051908101604052809291908181526020018280546101a790611173565b80156101f25780601f106101c9576101008083540402835291602001916101f2565b820191905f5260205f20905b8154815290600101906020018083116101d557829003601f168201915b505050505081565b805f803373ffffffffffffffffffffffffffffffffffffffff1673ffffffffffffffffffffffffffffffffffffffff1681526020019081526020015f2090816102439190611340565b503373ffffffffffffffffffffffffffffffffffffffff167f5c17b31b7093fab252cfb7ba0383b4d7496959615b0a3c55ffa70a3f3d67182c8260405161028a9190610c14565b60405180910390a250565b60606001826040516102a79190611449565b9081526020016040518091039020805480602002602001604051908101604052809291908181526020015f905b828210156104b3578382905f5260205f2090600302016040518060600160405290815f8201805461030490611173565b80601f016020809104026020016040519081016040528092919081815260200182805461033090611173565b801561037b5780601f106103525761010080835404028352916020019161037b565b820191905f5260205f20905b81548152906001019060200180831161035e57829003601f168201915b5050505050815260200160018201805461039490611173565b80601f01602080910402602001604051908101604052809291908181526020018280546103c090611173565b801561040b5780601f106103e25761010080835404028352916020019161040b565b820191905f5260205f20905b8154815290600101906020018083116103ee57829003601f168201915b5050505050815260200160028201805461042490611173565b80601f016020809104026020016040519081016040528092919081815260200182805461045090611173565b801561049b5780601f106104725761010080835404028352916020019161049b565b820191905f5260205f20905b81548152906001019060200180831161047e57829003601f168201915b505050505081525050815260200190600101906102d4565b505050509050919050565b60608060605f6001866040516104d49190611449565b9081526020016040518091039020805480602002602001604051908101604052809291908181526020015f905b828210156106e0578382905f5260205f2090600302016040518060600160405290815f8201805461053190611173565b80601f016020809104026020016040519081016040528092919081815260200182805461055d90611173565b80156105a85780601f1061057f576101008083540402835291602001916105a8565b820191905f5260205f20905b81548152906001019060200180831161058b57829003601f168201915b505050505081526020016001820180546105c190611173565b80601f01602080910402602001604051908101604052809291908181526020018280546105ed90611173565b80156106385780601f1061060f57610100808354040283529160200191610638565b820191905f5260205f20905b81548152906001019060200180831161061b57829003601f168201915b5050505050815260200160028201805461065190611173565b80601f016020809104026020016040519081016040528092919081815260200182805461067d90611173565b80156106c85780601f1061069f576101008083540402835291602001916106c8565b820191905f5260205f20905b8154815290600101906020018083116106ab57829003601f168201915b50505050508152505081526020019060010190610501565b5050505090505f5b81518110156107de57856040516020016107029190611449565b6040516020818303038152906040528051906020012082828151811061072b5761072a61145f565b5b6020026020010151604001516040516020016107479190611449565b60405160208183030381529060405280519060200120036107cb578181815181106107755761077461145f565b5b60200260200101515f01518282815181106107935761079261145f565b5b6020026020010151602001518383815181106107b2576107b161145f565b5b602002602001015160400151945094509450505061081a565b80806107d6906114b9565b9150506106e8565b506040517f08c379a000000000000000000000000000000000000000000000000000000000815260040161081190611570565b60405180910390fd5b9250925092565b6001828051602081018201805184825260208301602085012081835280955050505050508181548110610852575f80fd5b905f5260205f2090600302015f9150915050805f01805461087290611173565b80601f016020809104026020016040519081016040528092919081815260200182805461089e90611173565b80156108e95780601f106108c0576101008083540402835291602001916108e9565b820191905f5260205f20905b8154815290600101906020018083116108cc57829003601f168201915b5050505050908060010180546108fe90611173565b80601f016020809104026020016040519081016040528092919081815260200182805461092a90611173565b80156109755780601f1061094c57610100808354040283529160200191610975565b820191905f5260205f20905b81548152906001019060200180831161095857829003601f168201915b50505050509080600201805461098a90611173565b80601f01602080910402602001604051908101604052809291908181526020018280546109b690611173565b8015610a015780601f106109d857610100808354040283529160200191610a01565b820191905f5260205f20905b8154815290600101906020018083116109e457829003601f168201915b5050505050905083565b5f6040518060600160405280858152602001848152602001838152509050600185604051610a399190611449565b908152602001604051809103902081908060018154018082558091505060019003905f5260205f2090600302015f909190919091505f820151815f019081610a819190611340565b506020820151816001019081610a979190611340565b506040820151816002019081610aad9190611340565b5050507f96ea461060fe068963b025f6fd46a3a316bf92f97c54c535a281c7682e309e3e85858585604051610ae5949392919061158e565b60405180910390a15050505050565b5f604051905090565b5f80fd5b5f80fd5b5f73ffffffffffffffffffffffffffffffffffffffff82169050919050565b5f610b2e82610b05565b9050919050565b610b3e81610b24565b8114610b48575f80fd5b50565b5f81359050610b5981610b35565b92915050565b5f60208284031215610b7457610b73610afd565b5b5f610b8184828501610b4b565b91505092915050565b5f81519050919050565b5f82825260208201905092915050565b5f5b83811015610bc1578082015181840152602081019050610ba6565b5f8484015250505050565b5f601f19601f8301169050919050565b5f610be682610b8a565b610bf08185610b94565b9350610c00818560208601610ba4565b610c0981610bcc565b840191505092915050565b5f6020820190508181035f830152610c2c8184610bdc565b905092915050565b5f80fd5b5f80fd5b7f4e487b71000000000000000000000000000000000000000000000000000000005f52604160045260245ffd5b610c7282610bcc565b810181811067ffffffffffffffff82111715610c9157610c90610c3c565b5b80604052505050565b5f610ca3610af4565b9050610caf8282610c69565b919050565b5f67ffffffffffffffff821115610cce57610ccd610c3c565b5b610cd782610bcc565b9050602081019050919050565b828183375f83830152505050565b5f610d04610cff84610cb4565b610c9a565b905082815260208101848484011115610d2057610d1f610c38565b5b610d2b848285610ce4565b509392505050565b5f82601f830112610d4757610d46610c34565b5b8135610d57848260208601610cf2565b91505092915050565b5f60208284031215610d7557610d74610afd565b5b5f82013567ffffffffffffffff811115610d9257610d91610b01565b5b610d9e84828501610d33565b91505092915050565b5f81519050919050565b5f82825260208201905092915050565b5f819050602082019050919050565b5f82825260208201905092915050565b5f610dea82610b8a565b610df48185610dd0565b9350610e04818560208601610ba4565b610e0d81610bcc565b840191505092915050565b5f606083015f8301518482035f860152610e328282610de0565b91505060208301518482036020860152610e4c8282610de0565b91505060408301518482036040860152610e668282610de0565b9150508091505092915050565b5f610e7e8383610e18565b905092915050565b5f602082019050919050565b5f610e9c82610da7565b610ea68185610db1565b935083602082028501610eb885610dc1565b805f5b85811015610ef35784840389528151610ed48582610e73565b9450610edf83610e86565b925060208a01995050600181019050610ebb565b50829750879550505050505092915050565b5f6020820190508181035f830152610f1d8184610e92565b905092915050565b5f8060408385031215610f3b57610f3a610afd565b5b5f83013567ffffffffffffffff811115610f5857610f57610b01565b5b610f6485828601610d33565b925050602083013567ffffffffffffffff811115610f8557610f84610b01565b5b610f9185828601610d33565b9150509250929050565b5f6060820190508181035f830152610fb38186610bdc565b90508181036020830152610fc78185610bdc565b90508181036040830152610fdb8184610bdc565b9050949350505050565b5f819050919050565b610ff781610fe5565b8114611001575f80fd5b50565b5f8135905061101281610fee565b92915050565b5f806040838503121561102e5761102d610afd565b5b5f83013567ffffffffffffffff81111561104b5761104a610b01565b5b61105785828601610d33565b925050602061106885828601611004565b9150509250929050565b5f805f806080858703121561108a57611089610afd565b5b5f85013567ffffffffffffffff8111156110a7576110a6610b01565b5b6110b387828801610d33565b945050602085013567ffffffffffffffff8111156110d4576110d3610b01565b5b6110e087828801610d33565b935050604085013567ffffffffffffffff81111561110157611100610b01565b5b61110d87828801610d33565b925050606085013567ffffffffffffffff81111561112e5761112d610b01565b5b61113a87828801610d33565b91505092959194509250565b7f4e487b71000000000000000000000000000000000000000000000000000000005f52602260045260245ffd5b5f600282049050600182168061118a57607f821691505b60208210810361119d5761119c611146565b5b50919050565b5f819050815f5260205f209050919050565b5f6020601f8301049050919050565b5f82821b905092915050565b5f600883026111ff7fffffffffffffffffffffffffffffffffffffffffffffffffffffffffffffffff826111c4565b61120986836111c4565b95508019841693508086168417925050509392505050565b5f819050919050565b5f61124461123f61123a84610fe5565b611221565b610fe5565b9050919050565b5f819050919050565b61125d8361122a565b6112716112698261124b565b8484546111d0565b825550505050565b5f90565b611285611279565b611290818484611254565b505050565b5b818110156112b3576112a85f8261127d565b600181019050611296565b5050565b601f8211156112f8576112c9816111a3565b6112d2846111b5565b810160208510156112e1578190505b6112f56112ed856111b5565b830182611295565b50505b505050565b5f82821c905092915050565b5f6113185f19846008026112fd565b1980831691505092915050565b5f6113308383611309565b9150826002028217905092915050565b61134982610b8a565b67ffffffffffffffff81111561136257611361610c3c565b5b61136c8254611173565b6113778282856112b7565b5f60209050601f8311600181146113a8575f8415611396578287015190505b6113a08582611325565b865550611407565b601f1984166113b6866111a3565b5f5b828110156113dd578489015182556001820191506020850194506020810190506113b8565b868310156113fa57848901516113f6601f891682611309565b8355505b6001600288020188555050505b505050505050565b5f81905092915050565b5f61142382610b8a565b61142d818561140f565b935061143d818560208601610ba4565b80840191505092915050565b5f6114548284611419565b915081905092915050565b7f4e487b71000000000000000000000000000000000000000000000000000000005f52603260045260245ffd5b7f4e487b71000000000000000000000000000000000000000000000000000000005f52601160045260245ffd5b5f6114c382610fe5565b91507fffffffffffffffffffffffffffffffffffffffffffffffffffffffffffffffff82036114f5576114f461148c565b5b600182019050919050565b7f4d617070696e67206e6f7420666f756e6420666f72207468652070726f7669645f8201527f6564207478686173680000000000000000000000000000000000000000000000602082015250565b5f61155a602983610b94565b915061156582611500565b604082019050919050565b5f6020820190508181035f8301526115878161154e565b9050919050565b5f6080820190508181035f8301526115a68187610bdc565b905081810360208301526115ba8186610bdc565b905081810360408301526115ce8185610bdc565b905081810360608301526115e28184610bdc565b90509594505050505056fea26469706673582212206028e24b1da3fbfbb15569a068afe77d65abb8003b21196989fc88c6c7256d9b64736f6c63430008150033",
  "immutableReferences": {},
  "source": "// SPDX-License-Identifier: GPL-3.0\npragma solidity >=0.8.0 <0.9.0;\n\ncontract VCStore {\n    event VCStored(address indexed user, string vc); // Definizione dell'evento\n    event MappingAdded(string topic, string cid_db, string cid_acl, string transaction_id); // Nuovo evento per il mapping\n\n    mapping(address => string) public vcMap;\n\n    struct Mapping {\n        string cid_db;\n        string cid_acl;\n        string transaction_id;\n    }\n\n    mapping(string => Mapping[]) public topicMappings;\n\n    function storeVC(string memory vc) public {\n        vcMap[msg.sender] = vc;\n        emit VCStored(msg.sender, vc); // Emissione dell'evento\n    }\n\n    function addMapping(string memory topic, string memory cid_db, string memory cid_acl, string memory txhash) public {\n        Mapping memory newMapping = Mapping({\n            cid_db: cid_db,\n            cid_acl: cid_acl,\n            transaction_id: txhash\n        });\n\n        topicMappings[topic].push(newMapping);\n        emit MappingAdded(topic, cid_db, cid_acl, txhash); // Emissione dell'evento per il mapping\n    }\n\n    function getMappings(string memory topic) public view returns (Mapping[] memory) {\n        return topicMappings[topic];\n    }\n\n    function getMappingByTxHash(string memory topic, string memory txhash) public view returns (string memory cid_db, string memory cid_acl, string memory transaction_id) {\n        Mapping[] memory mappings = topicMappings[topic];\n        for (uint i = 0; i < mappings.length; i++) {\n            if (keccak256(abi.encodePacked(mappings[i].transaction_id)) == keccak256(abi.encodePacked(txhash))) {\n                return (mappings[i].cid_db, mappings[i].cid_acl, mappings[i].transaction_id);\n            }\n        }\n        revert(\"Mapping not found for the provided txhash\");\n    }\n}\n\n",
  "sourcePath": "/home/andrea/web3-demo/contracts/VCStorage.sol",
  "compiler": {
    "name": "solc",
    "version": "0.8.21+commit.d9974bed.Emscripten.clang"
  },
  "schemaVersion": "3.4.16",
  "updatedAt": "2024-07-11T04:40:39.059Z",
  "networkType": "ethereum",
  "devdoc": {
    "kind": "dev",
    "methods": {},
    "version": 1
  },
  "userdoc": {
    "kind": "user",
    "methods": {},
    "version": 1
  }
}